{
  "transactions": [
    {
      "hash": "0x7619eb83f7a890e660665469686f919228577d79916b80f1ed1152c25fac63aa",
      "transactionType": "CREATE",
      "contractName": "MockUSDC",
      "contractAddress": "0x4878ff54f1f87162500b5d7091075e441018ff6c",
      "function": null,
      "arguments": [
        "0x685F3040003E20Bf09488C8B9354913a00627f7a"
      ],
      "transaction": {
        "from": "0x685f3040003e20bf09488c8b9354913a00627f7a",
        "gas": "0xc14b8",
        "value": "0x0",
        "input": "0x608060405234801562000010575f80fd5b5060405162000b6738038062000b67833981016040819052620000339162000128565b80604051806040016040528060098152602001684d6f636b205553444360b81b815250604051806040016040528060048152602001635553444360e01b8152508160039081620000849190620001f5565b506004620000938282620001f5565b5050506001600160a01b038116620000c457604051631e4fbdf760e01b81525f600482015260240160405180910390fd5b620000cf81620000d7565b5050620002c1565b600580546001600160a01b038381166001600160a01b0319831681179093556040519116919082907f8be0079c531659141344cd1fd0a4f28419497f9722a3daafe3b4186f6b6457e0905f90a35050565b5f6020828403121562000139575f80fd5b81516001600160a01b038116811462000150575f80fd5b9392505050565b634e487b7160e01b5f52604160045260245ffd5b600181811c908216806200018057607f821691505b6020821081036200019f57634e487b7160e01b5f52602260045260245ffd5b50919050565b601f821115620001f057805f5260205f20601f840160051c81016020851015620001cc5750805b601f840160051c820191505b81811015620001ed575f8155600101620001d8565b50505b505050565b81516001600160401b0381111562000211576200021162000157565b62000229816200022284546200016b565b84620001a5565b602080601f8311600181146200025f575f8415620002475750858301515b5f19600386901b1c1916600185901b178555620002b9565b5f85815260208120601f198616915b828110156200028f578886015182559484019460019091019084016200026e565b5085821015620002ad57878501515f19600388901b60f8161c191681555b505060018460011b0185555b505050505050565b61089880620002cf5f395ff3fe608060405234801561000f575f80fd5b50600436106100cb575f3560e01c806370a082311161008857806395d89b411161006357806395d89b41146101a4578063a9059cbb146101ac578063dd62ed3e146101bf578063f2fde38b146101f7575f80fd5b806370a0823114610159578063715018a6146101815780638da5cb5b14610189575f80fd5b806306fdde03146100cf578063095ea7b3146100ed57806318160ddd1461011057806323b872dd14610122578063313ce5671461013557806340c10f1914610144575b5f80fd5b6100d761020a565b6040516100e491906106f2565b60405180910390f35b6101006100fb366004610759565b61029a565b60405190151581526020016100e4565b6002545b6040519081526020016100e4565b610100610130366004610781565b6102b3565b604051600681526020016100e4565b610157610152366004610759565b6102d6565b005b6101146101673660046107ba565b6001600160a01b03165f9081526020819052604090205490565b6101576102ec565b6005546040516001600160a01b0390911681526020016100e4565b6100d76102ff565b6101006101ba366004610759565b61030e565b6101146101cd3660046107da565b6001600160a01b039182165f90815260016020908152604080832093909416825291909152205490565b6101576102053660046107ba565b61031b565b6060600380546102199061080b565b80601f01602080910402602001604051908101604052809291908181526020018280546102459061080b565b80156102905780601f1061026757610100808354040283529160200191610290565b820191905f5260205f20905b81548152906001019060200180831161027357829003601f168201915b5050505050905090565b5f336102a781858561035d565b60019150505b92915050565b5f336102c085828561036f565b6102cb8585856103eb565b506001949350505050565b6102de610448565b6102e88282610475565b5050565b6102f4610448565b6102fd5f6104a9565b565b6060600480546102199061080b565b5f336102a78185856103eb565b610323610448565b6001600160a01b03811661035157604051631e4fbdf760e01b81525f60048201526024015b60405180910390fd5b61035a816104a9565b50565b61036a83838360016104fa565b505050565b6001600160a01b038381165f908152600160209081526040808320938616835292905220545f198110156103e557818110156103d757604051637dc7a0d960e11b81526001600160a01b03841660048201526024810182905260448101839052606401610348565b6103e584848484035f6104fa565b50505050565b6001600160a01b03831661041457604051634b637e8f60e11b81525f6004820152602401610348565b6001600160a01b03821661043d5760405163ec442f0560e01b81525f6004820152602401610348565b61036a8383836105cc565b6005546001600160a01b031633146102fd5760405163118cdaa760e01b8152336004820152602401610348565b6001600160a01b03821661049e5760405163ec442f0560e01b81525f6004820152602401610348565b6102e85f83836105cc565b600580546001600160a01b038381166001600160a01b0319831681179093556040519116919082907f8be0079c531659141344cd1fd0a4f28419497f9722a3daafe3b4186f6b6457e0905f90a35050565b6001600160a01b0384166105235760405163e602df0560e01b81525f6004820152602401610348565b6001600160a01b03831661054c57604051634a1406b160e11b81525f6004820152602401610348565b6001600160a01b038085165f90815260016020908152604080832093871683529290522082905580156103e557826001600160a01b0316846001600160a01b03167f8c5be1e5ebec7d5bd14f71427d1e84f3dd0314c0f7b2291e5b200ac8c7c3b925846040516105be91815260200190565b60405180910390a350505050565b6001600160a01b0383166105f6578060025f8282546105eb9190610843565b909155506106669050565b6001600160a01b0383165f90815260208190526040902054818110156106485760405163391434e360e21b81526001600160a01b03851660048201526024810182905260448101839052606401610348565b6001600160a01b0384165f9081526020819052604090209082900390555b6001600160a01b038216610682576002805482900390556106a0565b6001600160a01b0382165f9081526020819052604090208054820190555b816001600160a01b0316836001600160a01b03167fddf252ad1be2c89b69c2b068fc378daa952ba7f163c4a11628f55a4df523b3ef836040516106e591815260200190565b60405180910390a3505050565b5f602080835283518060208501525f5b8181101561071e57858101830151858201604001528201610702565b505f604082860101526040601f19601f8301168501019250505092915050565b80356001600160a01b0381168114610754575f80fd5b919050565b5f806040838503121561076a575f80fd5b6107738361073e565b946020939093013593505050565b5f805f60608486031215610793575f80fd5b61079c8461073e565b92506107aa6020850161073e565b9150604084013590509250925092565b5f602082840312156107ca575f80fd5b6107d38261073e565b9392505050565b5f80604083850312156107eb575f80fd5b6107f48361073e565b91506108026020840161073e565b90509250929050565b600181811c9082168061081f57607f821691505b60208210810361083d57634e487b7160e01b5f52602260045260245ffd5b50919050565b808201808211156102ad57634e487b7160e01b5f52601160045260245ffdfea26469706673582212207cd61b89495e1245d9df50ef5d391ff79a5e43b399a944052f7d2aae63e5a82b64736f6c63430008180033000000000000000000000000685f3040003e20bf09488c8b9354913a00627f7a",
        "nonce": "0x1",
        "chainId": "0x14a34"
      },
      "additionalContracts": [],
      "isFixedGasLimit": false
    },
    {
      "hash": "0x213503f1562a5f32d512003e64fe0add0ac24d195a0be296bbd17580e98b1269",
      "transactionType": "CALL",
      "contractName": "MockUSDC",
      "contractAddress": "0x4878ff54f1f87162500b5d7091075e441018ff6c",
      "function": "mint(address,uint256)",
      "arguments": [
        "0x685F3040003E20Bf09488C8B9354913a00627f7a",
        "1000000000000"
      ],
      "transaction": {
        "from": "0x685f3040003e20bf09488c8b9354913a00627f7a",
        "to": "0x4878ff54f1f87162500b5d7091075e441018ff6c",
        "gas": "0x19392",
        "value": "0x0",
        "input": "0x40c10f19000000000000000000000000685f3040003e20bf09488c8b9354913a00627f7a000000000000000000000000000000000000000000000000000000e8d4a51000",
        "nonce": "0x2",
        "chainId": "0x14a34"
      },
      "additionalContracts": [],
      "isFixedGasLimit": false
    }
  ],
  "receipts": [
    {
      "status": "0x1",
      "cumulativeGasUsed": "0x1a76dc",
      "logs": [
        {
          "address": "0x4878ff54f1f87162500b5d7091075e441018ff6c",
          "topics": [
            "0x8be0079c531659141344cd1fd0a4f28419497f9722a3daafe3b4186f6b6457e0",
            "0x0000000000000000000000000000000000000000000000000000000000000000",
            "0x000000000000000000000000685f3040003e20bf09488c8b9354913a00627f7a"
          ],
          "data": "0x",
          "blockHash": "0xf21e09c73905973dfaf59e066ec7e720a7330550ad15d6f88335d2d299184258",
          "blockNumber": "0x1e4c86a",
          "transactionHash": "0x7619eb83f7a890e660665469686f919228577d79916b80f1ed1152c25fac63aa",
          "transactionIndex": "0x9",
          "logIndex": "0xe",
          "removed": false
        }
      ],
      "logsBloom": "0x00000000000000000080000000000000000000000000000008800000000080000000000000000000000000000000000000000000000000000000000000000000000000000000000000000000000000000001000000000000000000000000000000000000028000000000000000000800000000000000000000000000000000400000000000000200000000000000000000000000000000000000000000000000000000000000000000000000000000000000000000000000000000000000000000000000000000000000000000000000000000000000000000008000000020000000000000000000000000000000000000000000000000000000000000000000",
      "type": "0x2",
      "transactionHash": "0x7619eb83f7a890e660665469686f919228577d79916b80f1ed1152c25fac63aa",
      "transactionIndex": "0x9",
      "blockHash": "0xf21e09c73905973dfaf59e066ec7e720a7330550ad15d6f88335d2d299184258",
      "blockNumber": "0x1e4c86a",
      "gasUsed": "0x94b04",
      "effectiveGasPrice": "0xf4278",
      "from": "0x685f3040003e20bf09488c8b9354913a00627f7a",
      "to": null,
      "contractAddress": "0x4878ff54f1f87162500b5d7091075e441018ff6c",
      "l1BaseFeeScalar": "0x44d",
      "l1BlobBaseFee": "0x1",
      "l1BlobBaseFeeScalar": "0xa118b",
      "l1Fee": "0x2fbc7",
      "l1GasPrice": "0x1793",
      "l1GasUsed": "0x723d"
    },
    {
      "status": "0x1",
      "cumulativeGasUsed": "0x1b8acf",
      "logs": [
        {
          "address": "0x4878ff54f1f87162500b5d7091075e441018ff6c",
          "topics": [
            "0xddf252ad1be2c89b69c2b068fc378daa952ba7f163c4a11628f55a4df523b3ef",
            "0x0000000000000000000000000000000000000000000000000000000000000000",
            "0x000000000000000000000000685f3040003e20bf09488c8b9354913a00627f7a"
          ],
          "data": "0x000000000000000000000000000000000000000000000000000000e8d4a51000",
          "blockHash": "0xf21e09c73905973dfaf59e066ec7e720a7330550ad15d6f88335d2d299184258",
          "blockNumber": "0x1e4c86a",
          "transactionHash": "0x213503f1562a5f32d512003e64fe0add0ac24d195a0be296bbd17580e98b1269",
          "transactionIndex": "0xa",
          "logIndex": "0xf",
          "removed": false
        }
      ],
      "logsBloom": "0x00000000000000000080000000000000000000000000000008000000000080000000000000000000000000000000000000000000000000000000000000000000000000000000000000000008000000000000000000000000000000000000000000000000028000000000000000000800000000000000000000000010000000000000000000000200000000000000000000000000000000000000000000000000000000000000000000000000000000000000000000000000000000000000000000000002000000000000000000000000000000000000000000008000000020000000000000000000000000000000000000000000000000000000000000000000",
      "type": "0x2",
      "transactionHash": "0x213503f1562a5f32d512003e64fe0add0ac24d195a0be296bbd17580e98b1269",
      "transactionIndex": "0xa",
      "blockHash": "0xf21e09c73905973dfaf59e066ec7e720a7330550ad15d6f88335d2d299184258",
      "blockNumber": "0x1e4c86a",
      "gasUsed": "0x113f3",
      "effectiveGasPrice": "0xf4278",
      "from": "0x685f3040003e20bf09488c8b9354913a00627f7a",
      "to": "0x4878ff54f1f87162500b5d7091075e441018ff6c",
      "contractAddress": null,
      "l1BaseFeeScalar": "0x44d",
      "l1BlobBaseFee": "0x1",
      "l1BlobBaseFeeScalar": "0xa118b",
      "l1Fee": "0x29c9",
      "l1GasPrice": "0x1793",
      "l1GasUsed": "0x640"
    }
  ],
  "libraries": [],
  "pending": [],
  "returns": {},
  "timestamp": 1759309750706,
  "chain": 84532,
  "commit": null
}